:020000040800F2
:10000000B8040024AD020008CB2B0008DB28000850
:10001000C92B0008B9030008113C000800000000CB
:10002000000000000000000000000000092E000891
:10003000BB03000800000000D12B00080B2E0008B5
:10004000C7020008C7020008C7020008C70200086C
:10005000C7020008C7020008C7020008C70200085C
:10006000C7020008C7020008C7020008C70200084C
:10007000C7020008C7020008C7020008C70200083C
:10008000C7020008C7020008C7020008C70200082C
:10009000C7020008C7020008C7020008C70200081C
:1000A000C7020008C7020008C7020008C70200080C
:1000B000C7020008C7020008C7020008C7020008FC
:1000C000C7020008C7020008C7020008C7020008EC
:1000D000C7020008093C0008C7020008C702000860
:1000E000C7020008C702000800000000C70200089D
:1000F000C7020008C7020008C7020008C7020008BC
:10010000C7020008C7020008C7020008C7020008AB
:10011000C7020008C7020008C7020008C70200089B
:10012000C7020008C7020008C7020008C70200088B
:10013000C7020008C7020008C7020008C70200087B
:1001400000000000000000000000000000000000AF
:10015000C7020008C7020008C7020008C70200085B
:10016000C7020008C7020008C7020008C70200084B
:10017000C7020008C7020008C7020008000000000C
:10018000C7020008C7020008C7020008C70200082B
:10019000C7020008C7020008C7020008C70200081B
:1001A000C7020008C7020008C7020008C70200080B
:1001B000C7020008C7020008C7020008C7020008FB
:1001C000C7020008C7020008C7020008C7020008EB
:1001D000C7020008C7020008C7020008C7020008DB
:1001E000C7020008C7020008C7020008C7020008CB
:1001F000C7020008C7020008C7020008C7020008BB
:10020000C7020008C7020008C7020008C7020008AA
:10021000C7020008C7020008C7020008C70200089A
:10022000C7020008C7020008C7020008000000005B
:10023000C7020008C702000800000000C70200084B
:10024000C7020008C7020008C7020008C70200086A
:10025000C7020008C7020008C7020008C70200085A
:10026000C7020008C7020008C7020008C70200084A
:10027000C7020008C7020008C7020008000000000B
:10028000C7020008C7020008C702000800000000FB
:1002900000000000C7020008DFF80CD000F07AF878
:1002A00000480047513C0008B80400240648804735
:1002B00006480047FEE7FEE7FEE7FEE7FEE7FEE74B
:1002C000FEE7FEE7FEE7FEE7292F00089902000897
:1002D0002DE9F05F0546002092469B46884606467B
:1002E000814640241BE0284641464746224600F00E
:1002F00041F853465A46C01A914110D31146184648
:10030000224600F028F82D1A67EB01084F462246D6
:100310000120002100F01FF817EB00094E41201EBC
:10032000A4F10104DFDC484631462A464346BDE8D5
:10033000F09FD2B201E000F8012B491EFBD27047BA
:100340000022F6E710B513460A4604461946FFF7A1
:10035000F0FF204610BD202A04DB203A00FA02F10B
:10036000002070479140C2F1200320FA03F31943A3
:1003700090407047202A04DB203A21FA02F0002145
:10038000704721FA02F3D040C2F1200291400843A5
:1003900019467047064C074D06E0E06840F001033F
:1003A00094E8070098471034AC42F6D3FFF778FF83
:1003B0003440000854400008FEE77047EFF3108017
:1003C00072B6FEE770B528282BD0BA2849D1274C41
:1003D000274E4FF4007100222046B04720464FF4CC
:1003E00080710022B047234D2820A84720464FF4B3
:1003F00080710122B04720464FF400710022B047BF
:100400002820A84720464FF400710022B04728203A
:10041000A84720464FF4007101223346BDE87040E2
:100420001847124C124D4FF4807100222046A84705
:1004300020464FF400710122A8470E4E2820B047F5
:1004400020464FF480710122A8470A20B047204679
:100450004FF400710022A84737203146BDE87040B4
:10046000084705A0BDE8704003F0B6BD000402587F
:10047000170C00082D0A000847543931315F496EC6
:100480006974206572726F720D0000002DE9F041F1
:1004900014460D46064602F0A9FADFF844802820EB
:1004A000C047104FB847300AC047B847F0B2C047FE
:1004B000B84702F0B2FA02F099FA2920C047B847CB
:1004C000002002F039FA287024B102F007FA013551
:1004D000013CF5E702F018FABDE8F04102F09DBAE0
:1004E00081290008492A0008F8B5044600F09EFB5F
:1004F000002C00F0B380054694F83500022840F047
:10050000AF802768BF4EB7421CBFBF4887421ED08E
:10051000BE4887421CBFBE48874218D0BD488742AC
:100520001CBFBD48874212D0BC4887421CBFBC4894
:1005300087420CD0BB4887421CBFBB48874206D0CD
:10054000BA4887421CBFBA48874240F00B813868DE
:10055000394620F01E00386051F8140F20F080005A
:10056000B74208603CD0A84887421CBFA7488742D2
:1005700036D0A74887421CBFA648874230D0A6483D
:1005800087421CBFA54887422AD0A54887421CBF86
:10059000A448874224D0A44887421CBFA34887426E
:1005A0001ED0A34887421CBFA248874218D0A34848
:1005B00087421CBFA048874212D0A14887421CBF77
:1005C000A04887420CD0A04887421CBF9F48874262
:1005D00006D09F4887421CBF9E48874240F0FB8060
:1005E000206EB742016821F48071016024D0F84880
:1005F00087421CBFF74887421ED0F74887421CBF7E
:10060000F648874218D0F64887421CBFF548874213
:1006100012D0F54887421CBFF44887420CD0F448FA
:1006200087421CBFF348874206D0F34887421CBF6D
:10063000F248874240F0AB80386820F00100386013
:100640003868C00710D000F0F1FA401B0628F7D335
:1006500020206065032084F8350003E00120F8BD08
:1006600080206065012079E02068B0421CBFD84935
:1006700088421DD0D74988421CBFD749884217D02D
:10068000D64988421CBFD649884211D0D5498842F4
:100690001CBFD54988420BD0D44988421CBFD449DD
:1006A000884205D0D34988421CBFD349884279D1BA
:1006B000A16DE26D3F2302F01F0203FA02F28A608D
:1006C000B0423BD0C24988421CBFC249884235D0A3
:1006D000C14988421CBFC14988422FD0C0498842C5
:1006E0001CBFC049884229D0BF4988421CBFBF49AE
:1006F000884223D0BE4988421CBFBE4988421DD0D3
:10070000BD4988421CBFBD49884217D0BC498842B8
:100710001CBFBD49884211D0BA4988421CBFBB49A1
:1007200088420BD0BA4988421CBFBA49884205D0DA
:10073000B94988421CBFB949884259D1E06ED4E911
:1007400019124A6030B1016821F480710160D4E966
:100750001C014160012084F835000020002184F84C
:100760003410F8BDA54887423FF4F1AEA648874251
:100770003FF4EDAEA24887423FF4E9AEA1493868A4
:100780008F423FF4E5AE20F00E003946E8E69C4883
:1007900087423FF451AF9B4887423FF44DAF9A48A0
:1007A000874249E7954988423FF482AF964988429B
:1007B0003FF47EAF924988423FF47AAF914AA16DEF
:1007C00090423FF476AFE26D012302F01F0203FA7C
:1007D00002F24A6074E7924887423FF401AF9148C1
:1007E00087423FF4FDAE904887423FF4F9AE23E7DD
:1007F0008B498842A2D08B4988429FD08A4988423F
:100800009CD0A7E7100002402800024040000240B0
:10081000580002407000024088000240A0000240E0
:10082000B800024010040240280402404004024084
:100830005804024070040240A004024088040240B0
:10084000B8040240085402581C540258305402584C
:100850004454025858540258B0B500285DD090F85E
:100860003510022957D10168584A914223D0584B7C
:1008700099421CBF574B99421DD0574B99421CBF00
:10088000564B994217D0564B99421CBF554B994233
:1008900011D0554B99421CBF544B99420BD0544B2D
:1008A00099421CBF534B994205D0534B99421CBFF0
:1008B000524B994234D191424FF0040380F83530C5
:1008C00023D0434881421CBF424881421DD0424848
:1008D00081421CBF4148814217D0414881421CBF20
:1008E0004048814211D0404881421CBF3F4881426C
:1008F0000BD03F4881421CBF3E48814205D03E4854
:1009000081421CBF3D4881424DD1086820F0010062
:100910000860002102E08021416501210846B0BD48
:10092000374B9942C7D0374B9942C4D0364B994286
:10093000C1D00A6822F00E020A600A6822F00102A1
:100940000A60324A91420BD0314A91421CBF314A6F
:10095000914205D0304A91421CBF304A91422BD17E
:1009600000F158041ECC1D6825F480751D6002F04E
:100970001F02012303FA02F24A60816E6160C16EB8
:1009800031B10A6822F480720A60D0E91C124A6010
:10099000002180F83410012280F83520026D002AF1
:1009A000BCD09047B5E716488142AED01548814289
:1009B000ABD015488142A8E7194A9142D0D0194AD4
:1009C0009142CDD0184A9142CAD0E1E710000240CE
:1009D00028000240400002405800024070000240DF
:1009E00088000240A0000240B8000240100402400B
:1009F00028040240400402405804024070040240AF
:100A000088040240B8040240A0040240085402587E
:100A10001C54025830540258445402585854025836
:100A20006C5402589454025880540258B0B504468D
:100A300000F0FCF80546A848611C007818BF044483
:100A400000F0F4F8401BA042FAD3B0BD10B5044644
:100A500001F0D6F80849B0FBF1F001F01BFC601E74
:100A6000FFF7E4FF01F0CCF84FF47A71B0FBF1F03E
:100A7000BDE8104001F00EBC40420F002DE9FC4FD4
:100A80005E4A0A244FF0000A4FF0000990425C4A87
:100A900008BF092402444FEAB223092B38BF4FEAAA
:100AA000B224002200940E6836FA02F700F0A38008
:100AB000012303FA02F716EA070B00F09680D1F83B
:100AC00004E003230EF0030CACF10105012D13D853
:100AD00003FA09F58468CB68AC4303FA09F36FEABB
:100AE000050823438360CEF300134468BC4393405E
:100AF0005700234343600BE003FA09F3BCF1030FF3
:100B00004F466FEA030803D14F464FF0030C22E033
:100B1000C3688C68BCF1020F03EA080304FA07F407
:100B200043EA0403C36016D10AF01C030F2404FA3D
:100B300003FC6FF0030404EA520505442C6A24EA1E
:100B40000C0C0C6904FA03F343EA0C032B62D1F892
:100B500004E00EF0030C04681EF4403F0CFA07F3A7
:100B600004EA080443EA040303603ED0634C264EC3
:100B7000236843F00203236023680F2403F0020379
:100B80000193019D0AF00C0322F003059C40AF592C
:100B900027EA0404009F07FA03F32343AB514FF005
:100BA000B04633684D6843EA0B04EF0258BF23EAAE
:100BB0000B043460134EAF02336843EA0B0458BF92
:100BC00023EA0B043460AF03D6F8803043EA0B0409
:100BD00058BF23EA0B04C6F88040ED03F36F43EAE5
:100BE0000B0458BF23EA0B04F4670AF1040A09F165
:100BF0000209013257E7BDE8FC8F00BF002402580C
:100C00000000FEA7040000580804005800690840CE
:100C100018BF01207047002A08BF0904816170478E
:100C200001480068000C70470010005C054800682F
:100C3000704700BF2848034900780A6810440860DC
:100C4000704700BFB000002480B5032000F082F898
:100C500001F014F80E497F4B0A68C2F303220968B9
:100C600001F00F019A5C595C02F01F02D0401B4A50
:100C700001F01F011060C840064908600F2000F015
:100C80000BF808B1012080BD00F02AF8002080BDDB
:100C9000184402581000002470B50F4E04463078F6
:100CA000B0B14FF47A71B1FBF0F00C490968B1FBB7
:100CB000F0F001F0EFFA01250F2C0AD848B94FF0F7
:100CC000FF3021460022002500F028F8746000E083
:100CD0000125284670BD00BF040000240C0000243C
:100CE00081B00648016841F002010160006800F02F
:100CF00002000090009801B0704700BFF444025811
:100D0000002808D400F01F010122400902FA01F175
:100D1000014A42F82010704700E100E070B5134B23
:100D20004FF0FF351B68C3F30223DC1E83F007037B
:100D300038BF0024042B28BF042305FA04F605FA63
:100D400003F3B2439943A1401143BDE8704002F060
:100D500061BF00BF05494FF6FF030A681A4060F300
:100D60000A22034810430860704700BF0CED00E002
:100D70000000FA05B0B5104D2A682968520705D45D
:100D800001F00701081A18BF0120B0BD21F00701CA
:100D900008432860FFF74AFF044655F8080C800412
:100DA00007D4FFF743FF001BB0F57A7FF5D9012088
:100DB000B0BD0020B0BD00BF0C4802580248016819
:100DC00041F48071016070470048025810B5044634
:100DD0001648016841F002010160016821F002013A
:100DE0000160FFF71DFF41F20303D4E900129842AE
:100DF00004D8B2F1405F01D1A06802E042EA0100EC
:100E0000A16804F10C0308430ECB0843084940EAEB
:100E100002404860086820F47C5040EA03200860E3
:100E2000086840F06000086010BD00BF944402589C
:100E30000084004080B500F0E3FE0549054A0968DA
:100E4000C1F30211515C01F01F01C84080BD00BF19
:100E500020440258FC3F0008B0B53B498B6A8A6ABF
:100E6000CC6AC4F30014CD6BC5F3CC056C4300EE23
:100E7000104AB8EE400AC2F30532AAB103F00303E8
:100E8000022B15D0BBB90B689B0651BF9FED311AE1
:100E90000B68C3F3C103304C42BF24FA03F301EEE5
:100EA000103AB8EE411A08E00021C0E9001148E00C
:100EB0009FED271A01E09FED251A8B6B9FED273AD6
:100EC0006FF35F2302EE103AB8EE422A00EE032AD7
:100ED00003EE102AB7EE000AB8EE433A8A6BC2F36B
:100EE000462232EE002A81EE031A21EE021A02EEA9
:100EF000102AB8EE422A32EE002A81EE022ABCEE17
:100F0000C22A80ED002A8A6BC2F3064202EE102A42
:100F1000B8EE422A32EE002A81EE022ABCEEC22A44
:100F200080ED012A896BC1F3066102EE101AB8EE5A
:100F3000422A32EE000A81EE000ABCEEC00A10EE30
:100F4000101A8160B0BD00BF004402580024744AEA
:100F500020BCBE4B0024744C0090D003000000392C
:100F6000B0B53B498B6A8A6ACC6AC4F300244D6CE5
:100F7000C5F3CC056C4300EE104AB8EE400AC2F34C
:100F80000552AAB103F00303022B15D0BBB90B68BD
:100F90009B0651BF9FED311A0B68C3F3C103304C60
:100FA00042BF24FA03F301EE103AB8EE411A08E00A
:100FB0000021C0E9001148E09FED271A01E09FEDF4
:100FC000251A0B6C9FED273A6FF35F2302EE103A60
:100FD000B8EE422A00EE032A03EE102AB7EE000A0A
:100FE000B8EE433A0A6CC2F3462232EE002A81EE92
:100FF000031A21EE021A02EE102AB8EE422A32EE4D
:10100000002A81EE022ABCEEC22A80ED002A0A6C78
:10101000C2F3064202EE102AB8EE422A32EE002A4D
:1010200081EE022ABCEEC22A80ED012A096CC1F3CE
:10103000066102EE101AB8EE422A32EE000A81EE84
:10104000000ABCEEC00A10EE101A8160B0BD00BFED
:10105000004402580024744A20BCBE4B0024744C47
:101060000090D003000000392DE9F0470446C07815
:10107000AD4F000722D5A06E4FEA3051032908D8A2
:10108000DFE801F002090F17F96941F40031F96155
:101090000FE0012613E004F10800022101F09AFD9F
:1010A00004E004F12800022101F010FE064630B9E8
:1010B000A06E396C21F44011084338640026607832
:1010C000BA46C00701D1354629E0A06D04280BD8E7
:1010D0003546DFE800F0030C12181800F8693546B1
:1010E00040F40030F8610EE00125012718E004F11A
:1010F0000800002101F06EFD04E004F12800002149
:1011000001F0E4FD05462F4655B9A06DDAF8401010
:101110000025524621F007010843CAF8400037462F
:10112000607880072CD5E06D4FEAB01004280CD809
:10113000DFE800F0030E141A1A00DAF81C0051461A
:1011400040F40030CAF81C000EE00125012618E02A
:1011500004F10800002101F03DFD04E004F1280045
:10116000002101F0B3FD05462E4655B9E06DDAF8D1
:1011700040100025524621F4E0710843CAF84000AF
:101180003E466078400702D4B04657462BE0D4F87C
:10119000A80057464FEA7050042809D8DFE800F04D
:1011A000030C12181800F86940F40030F8610FE0E1
:1011B00001254FF0010816E004F10800002101F0BC
:1011C00009FD04E004F12800002101F07FFD05463F
:1011D000A84645B9D4F8A800B96C0025B04621F45A
:1011E00060010843B864607800072BD5D4F8AC00E0
:1011F0004FEA3060042809D8DFE800F0030B11172C
:101200001700F86940F40030F8610EE0012501276D
:1012100019E004F10800002101F0DCFC04E004F115
:101220002800002101F052FD05462F465DB9D4F893
:10123000AC00DAF848100025524621F0E06108437E
:10124000CAF848004746E078800725D5E06C4FEAA9
:10125000301003280BD8DFE800F013020D13DAF882
:101260001C00514640F40030CAF81C0008E001257B
:10127000012612E004F10800022101F0ABFC054652
:101280002E4655B9E06CDAF83C100025524621F0A4
:1012900030010843CAF83C003E466078C0062CD5B1
:1012A000206E4FEA303004280CD8DFE800F0030E3F
:1012B000141A1A00DAF81C00514640F40030CAF83B
:1012C0001C000EE00125012718E004F108000021B0
:1012D00001F080FC04E004F12800002101F0F6FC9C
:1012E00005462F4655B9206EDAF8401000255246C3
:1012F00021F4E0410843CAF8400037466078800690
:1013000026D5606E4FEA304005280AD8DFE800F0A5
:1013100014030E14141404F10800012101F05AFC06
:1013200009E00125012614E01044025804F12800C8
:10133000012101F0CBFC05462E4655B9606EDAF866
:1013400040100025524621F4E0210843CAF840002D
:101350003E466078400626D5D4F8B0004FEA30709B
:1013600005280AD8DFE800F012030C12121204F16B
:101370000800012101F02EFC07E00125012713E000
:1013800004F12800012101F0A1FC05462F465DB9BA
:10139000D4F8B000DAF848100025524621F0E041B8
:1013A0000843CAF8480037466078000621D5206F08
:1013B00098B1B0F1005F0AD0B0F1805F2DD1DAF8BA
:1013C0001C00514640F40030CAF81C0005E004F14E
:1013D0000800012101F0FEFB05462E4655B9206F9D
:1013E000DAF840100025524621F040510843CAF86F
:1013F00040003E46E078C00702D1B046574623E0A1
:10140000A06C574603280BD8DFE800F014020E1436
:10141000F86940F40030F8610CE001250126E9E7A5
:1014200001254FF001080FE004F10800022101F04E
:10143000D1FB0546A8463DB9A06CF96B0025B04626
:1014400021F003010843F863A078400601D4474621
:1014500016E0D7F8F00340F48070C7F8F003FFF708
:10146000E5FB0646D7F8F003C00507D4FFF7DEFB1F
:10147000801B6428F6D90325032701E02F4695B188
:101480002078C0074FD0E06F4FEAF000052835D82C
:10149000DFE800F03D03373D3D3D04F10800012148
:1014A00001F098FB32E0DAF86010D4F8B400554649
:1014B000414011F4407F0BD0296E2A6E42F48032F5
:1014C0002A6621F440712A6E22F480322A66296647
:1014D000B0F5807F40F06982FFF7A8FB064641F235
:1014E00088390327DAF86000800700F15B82FFF794
:1014F0009DFB801B03254845F4D9C1E70125012642
:1015000012E004F12800012101F0E0FB05462E461F
:1015100055B9E06FDAF844100025524621F0380141
:101520000843CAF844003E462078800722D5A06FC1
:1015300005280AD8DFE800F012030C12121204F199
:101540000800012101F046FB07E00125012712E018
:1015500004F12800012101F0B9FB05462F4655B9D9
:10156000A06FDAF844100025524621F00701084325
:10157000CAF8440037462078400724D5D4F89400B0
:1015800005280AD8DFE800F012030C12121204F149
:101590000800012101F01EFB07E00125012613E0F0
:1015A00004F12800012101F091FB05462E465DB9AA
:1015B000D4F89400DAF848100025524621F00701CB
:1015C0000843CAF848003E462078800626D5D4F85D
:1015D00090004FEA307005280AD8DFE800F01203C7
:1015E0000C12121204F10800002101F0F3FA07E0D6
:1015F0000125012713E004F12800022101F066FB18
:1016000005462F465DB9D4F89000DAF8441000255D
:10161000524621F0E0410843CAF84400374620789A
:10162000400626D5D4F89C004FEAB02005280AD8F9
:10163000DFE800F012030C12121204F1080000217E
:1016400001F0C8FA07E00125012613E004F12800A3
:10165000022101F03BFB05462E465DB9D4F89C0003
:10166000DAF848100025524621F4E0510843CAF840
:1016700048003E462078000626D5D4F8A0004FEA60
:10168000703005280AD8DFE800F012030C1212129D
:1016900004F10800002101F09DFA07E0012501276F
:1016A00013E004F12800022101F010FB05462F464B
:1016B0005DB9D4F8A000DAF848100025524621F4AC
:1016C00060410843CAF8480037462068010717D52B
:1016D000D4F88410B1F5805F0AD104F1280002210A
:1016E00001F0F4FA002818BF01272068D4F884100C
:1016F000DAF84420534622F440521143CAF8441009
:10170000C10617D5D4F89810B1F5807F0AD104F13D
:101710002800022101F0DAFA002818BF012720680A
:10172000D4F89810DAF84820534622F44072114356
:10173000CAF84810000321D5D4F8A400B0F5003F42
:101740000FD0B0F5803F06D080BB04F10800002127
:1017500001F040FA04E004F12800022101F0B6FA99
:1017600005462E465DB9D4F8A400DAF848100025E5
:10177000524621F440310843CAF848003E46A0785A
:10178000400729D5D4F88800B0F5401F17D0B0F530
:10179000001F0ED0B0F5801F40F0FF80DAF81C006B
:1017A000514640F40030CAF81C0008E0012501262B
:1017B000E5E704F12800012101F088FA05462F46EB
:1017C0005DB9D4F88800DAF844100025524621F4B7
:1017D00040110843CAF844003746A078C00701D139
:1017E0003E4621E0206DB0F5803F08D0D0B9DAF850
:1017F0001C00514640F40030CAF81C0005E004F11A
:101800000800022101F0E6F905462E4665B9206D73
:10181000DAF83C100025524621F480310843CAF81A
:101820003C00DDE7012501262168880001D46068BD
:1018300009E004F12800022101F048FA002818BF4D
:101840000126D4E900108A031BD5D4F880206FF05C
:10185000010303EB3223022B0BD34FEA322343B1B4
:10186000012B40F09D80DAF81C3043F40033CAF8B5
:101870001C303DB9DAF8443023F440731A43CAF8F7
:1018800044203546CA0207D5626FDAF8403023F0AB
:1018900000431A43CAF84020CA0008D5D4F8B8203B
:1018A000DAF8003023F480431A43CAF800208A0291
:1018B00007D5E26EDAF8403023F080731A43CAF895
:1018C00040204A000CD5DAF8002022F40042CAF881
:1018D0000020D4F8BC20DAF800301A43CAF80020FF
:1018E000B1F1FF3F07DC626DDAF83C3023F0405382
:1018F0001A43CAF83C20090208D5D4F88C10DAF84B
:10190000442022F440021143CAF84410C10708D011
:1019100004F10800002101F05DF9002818BF054618
:101920006068810708D504F10800012101F052F92F
:10193000002818BF05466068410708D504F1080073
:10194000022101F047F9002818BF05466068010729
:1019500008D504F12800002101F0B8F9002818BFCB
:1019600005466068C10608D504F12800012101F090
:10197000ADF9002818BF05466068800607D504F158
:101980002800022101F0A2F9002818BF0125002D2E
:1019900018BF01252846BDE8F087012501271CE76F
:1019A00001256FE75546D4F8B4002A68094900F4C8
:1019B000407322F47C5201EA1011B3F5407F6FF3BB
:1019C0001F3008BF0A432A60296E08432866002595
:1019D0003DE500BFCFFFFF00704700002DE9F84351
:1019E000002800F00081814D04468846286800F0F8
:1019F0000F0088420BD2286820F00F0040EA080050
:101A00002860286800F00F00404540F0EC80206816
:101A1000CF4F41070AD52169BA6902F0700291429D
:101A200004D9BA6922F070021143B96101070AD5DD
:101A30006169FA6902F07002914204D9FA6922F0F0
:101A400070021143F961C1060AD5A169FA6902F46D
:101A5000E062914204D9FA6922F4E0621143F9612B
:101A600081060AD5E1693A6A02F07002914204D90E
:101A70003A6A22F070021143396210F002010AD072
:101A8000E268BB6903F00F039A4204D9BB6923F0F3
:101A90000F031A43BA61C2073AD0D4E90101BA6907
:101AA00022F47062032841EA0201B96105D00228DC
:101AB00007D1396889030DD495E03968890109D4C3
:101AC00091E03968012802D1C90503D48BE04907A8
:101AD00040F189803969A94621F00701084338613E
:101AE000FFF7A4F8064641F288356068396901F0CD
:101AF0003801B1EBC00F07D0FFF798F8801BA84260
:101B0000F3D90320BDE8F88320684D4600F00201B8
:101B100051B1E168BA6902F00F02914204D2BA6988
:101B200022F00F021143B961296801F00F0141450C
:101B30000AD9296821F00F0141EA080129602968C2
:101B400001F00F0141454ED141070AD52169BA691B
:101B500002F07002914204D2BA6922F0700211437D
:101B6000B96101070AD56169FA6902F07002914210
:101B700004D2FA6922F070021143F961C1060AD554
:101B8000A169FA6902F4E062914204D2FA6922F48E
:101B9000E0621143F96180060AD5E069396A01F013
:101BA0007001884204D2396A21F07001084338621A
:101BB00000F064F8B969304A1E4BC1F30321515C4F
:101BC00001F01F01C840B969186001F00F01515CB4
:101BD00001F01F01C8401849086005480068BDE8C9
:101BE000F843FFF759B80120BDE8F8830020005200
:101BF000080000245648016841F400210160704744
:101C000080B500F03BF80A491B4B0A68C2F3032277
:101C1000096801F00F019A5C595C02F01F02D04084
:101C2000044A01F01F011060C8400349086080BDEC
:101C3000184402580C0000241000002480B5FFF75F
:101C4000DFFF0C490C4A0968C1F30211515C01F035
:101C50001F01C84080BD00BF80B5FFF7D1FF054917
:101C6000054A0968C1F30221515C01F01F01C84017
:101C700080BD00BF1C440258FC3F000810B5344929
:101C80000869C0F3C20003280BD002282FD080BB04
:101C90000868800634485AD50968C1F3C101C840B4
:101CA00010BD8A6A886ACB6A4C6B03F00103C4F3E7
:101CB000CC04634300EE103AB8EE400AC0F30510BE
:101CC000C8B102F00302022A17D0CAB90A68920604
:101CD00051BF9FED241A0A68C2F3C102224B42BFD2
:101CE00023FA02F201EE102AB8EE411A0AE01A486D
:101CF00010BD184810BD002010BD9FED191A01E05D
:101D00009FED161A0A6B9FED193A6FF35F2202EEF0
:101D1000102AB8EE422A00EE032AB7EE000A32EE8D
:101D2000000A02EE100AB8EE422A086BC0F3462001
:101D300081EE021A013021EE000A01EE100AB8EE1F
:101D4000411A80EE010ABCEEC00A10EE100A10BD66
:101D50000044025800093D0040787D010024744A87
:101D600020BCBE4B0024744C0090D003000000390E
:101D700010B5054C2068400504D5FFF72DFE4FF443
:101D80008060606010BD00BF64440258F8B5002850
:101D900000F03F8104460078D44EC00721D120785E
:101DA000800740F19A80306910F03801B06A3DD068
:101DB000182908BF5FEA807038D03068E1680029D0
:101DC0005ED020F0190008433060FEF72FFF054673
:101DD0003068400743D4FEF729FF401B0228F7D99B
:101DE000C8E1306900F03801B06A102905D018291F
:101DF0000AD100F00300022806D130688003CED556
:101E000060680028CBD104E16068002848D0B0F5B4
:101E1000803F07D03168B0F5A02F40F0988141F4A1
:101E200080203060306840F4803096E1E0683168AE
:101E3000490702D5002800F0EC80316821F0190133
:101E400008433060FEF7F2FE05463068400706D4CE
:101E5000FEF7ECFE411B03200229F6D9F8BDFEF780
:101E6000DFFE41F20301884230D82069716821F415
:101E70007C31402814BF41EA003041F400302BE0AF
:101E800020F001003060FEF7D1FE054630684007C3
:101E900023D5FEF7CBFE411B03200229F6D9DDE74F
:101EA000306820F480303060306820F4802030606A
:101EB000FEF7BCFE0546306880037FF570AFFEF785
:101EC000B5FE411B03206429F5D9C7E72069716875
:101ED00021F0FE4141EA006070602078C00640D5E4
:101EE000306900F03801B06A082905D018291CD1E2
:101EF00000F00300012818D13068C00503D5E0695F
:101F0000802840F08680FEF78BFE41F20301884274
:101F100020D8206A716821F0F841202814BF41EAD6
:101F2000806041F0804070601BE03068E16900290A
:101F300000F0DE8040F080003060FEF777FE05465E
:101F40003068C005DFD4FEF771FE411B0320022973
:101F5000F6D983E7206AF16821F07C5141EA0060FC
:101F6000F0602078000756D42078800665D4207869
:101F7000400776D4676A002F49D0306900F03800F6
:101F8000182840F0C680B16A306B012F41D0A26A98
:101F900001F0030393423CD1E26AC1F3051191427F
:101FA00037D10146226B6FF35F21013A914230D164
:101FB000C0F34621626B013A91422AD1C0F3064137
:101FC000A26B013A914224D1C0F30660E16B013962
:101FD00088421ED1A06C716BC1F3CC01884216D02F
:101FE000F06A20F00100F062FEF720FE0546FEF7E1
:101FF0001DFEA842FBD0706B4FF6F8718843A16CB0
:1020000040EAC1007063F06A40F00100F062002015
:10201000F8BD0120F8BD706F6169A9B340F00100FF
:102020007067FEF703FE0546706F80079CD4FEF7CD
:10203000FDFD401B0228F7D99CE03068A16900290A
:1020400043D040F480503060FEF7F0FD0546306824
:1020500080043FF58CAFFEF7E9FD401B0228F6D95E
:1020600088E0D6F8000440F48070C6F80004FEF75B
:10207000DDFD0546D6F80004C00516D4FEF7D6FDF2
:10208000401B6428F6D975E020F001007067FEF768
:10209000CDFD0546706F80077FF566AFFEF7C6FD84
:1020A000411B03200229F5D9D8E6A068002863D097
:1020B000012806D0316F052840F0D58041F004009A
:1020C0003067306F40F00100D3E020F48050306082
:1020D000FEF7ACFD0546306880047FF548AFFEF79B
:1020E000A5FD411B03200229F5D9B7E6004402589B
:1020F00020F080003060FEF799FD05463068C0058D
:102100007FF52FAFFEF792FD411B03200229F5D981
:10211000A4E6306820F080703060FEF787FD054649
:10212000022F09D1306880013ED5FEF77FFD411BAB
:1021300003200229F6D991E6306880017FF567AF68
:10214000FEF774FD411B03200229F5D986E621F430
:1021500080303060306820F480203060FEF766FD0B
:102160000546306880033FF51AAEFEF75FFD401B61
:102170006428F6D90320F8BD306F20F001003067E5
:10218000306F20F004003067FEF750FD054641F245
:102190008837306F80077FF5EDAEFEF747FD411BB6
:1021A0000320B942F5D959E604F12805B06A40F296
:1021B000F33188432ECD0843591E40EA0210B06225
:1021C0006FF35F214FF4FE024FF47E4000EB452099
:1021D00080B20844A16B02EB01414FF0FE4201F4D2
:1021E000FE010844E16B02EB016101F0FE4108448D
:1021F00030634FF6F871F06A20F00100F062706B06
:102200008843A16C40EAC1007063206CF16A21F040
:102210000C010843F062F06A616C20F00200084390
:10222000F062F06A40F48030F062F06A40F400300E
:10223000F062F06A40F48020F062F06A40F0010041
:10224000F062306840F080703060FEF7EFFC0446CA
:10225000306880013FF5DBAEFEF7E8FC011B032090
:102260000229F5D9FAE521F001003067306F20F03E
:1022700004003067FEF7DAFC054641F28837306F1C
:1022800080073FF577AEFEF7D1FC411B0320B94232
:10229000F5D9E3E5411E0020B0EB116F01D001201C
:1022A0007047044AF023516003490B709060072186
:1022B0001160704710E000E023ED00E090F884101A
:1022C000012901D1022112E02421C0F888100168FF
:1022D0000A680B6823F001030B6022F000520A60C9
:1022E0000021416680F884102022C0F8882008462A
:1022F000704770477047B0B5044690F884000128D5
:1023000001D10220B0BD2420C4F8880020680568EF
:10231000026822F001020260012284F884208268AF
:1023200022F0606211438160204600F055FE206873
:1023300020210560002084F88400C4F88810B0BD16
:10234000B0B5044690F88400012801D10220B0BD48
:102350002420C4F8880020680568026822F0010281
:102360000260012284F88420826822F060421143D6
:102370008160204600F030FE2068202105600020AA
:1023800084F88400C4F88810B0BD70477047704767
:10239000F8B50446006840F62F01C26902EA01055B
:1023A00001688368202D0ED101F0200503F08056CE
:1023B000AD1900F08580616F002900F06C81204626
:1023C000BDE8F840084740F60F052A4278D0B24DE4
:1023D00001EA0506B14D1D40761971D0D60718BF28
:1023E00011F4807607D001260662D4F8906046F09A
:1023F0000106C4F8906003F00106970708D53EB1C6
:1024000002270762D4F8907047F00407C4F8907070
:10241000570708D53EB104260662D4F8906046F00E
:102420000206C4F8906016070BD501F0200635436C
:1024300007D008250562D4F8905045F00805C4F887
:10244000905015050BD511F0806508D04FF400654C
:102450000562D4F8905045F02005C4F89050D4F8A7
:102460009050002D00F0178112F020020AD001F0E8
:10247000200103F08052891804D0616F11B1204609
:1024800088472068D4F89010806801F0280100F097
:102490004000401800F0D380204600F075FE206810
:1024A0008168490640F1E88050E8020F216820F079
:1024B000400041E80202002A00F0D2802068F3E7E1
:1024C00001EA0205EE06E66E3BD5012E39D1102158
:1024D00001628168490641D4B4F85E10B4F85C200A
:1024E000B4F85E30002B00F0D680511A0A0401D1F6
:1024F000D1E0206850E8000F226820F4907042E894
:102500000003002BF5D16748226852E8022F2368A8
:10251000024043E80225002DF6D12020C4F88C00AB
:1025200000206067E066206850E8000F226820F015
:10253000100042E80003002BF5D189B20220206789
:1025400058E0D6025BD513F4800658D04FF48011C2
:1025500001622046BDE8F840FFF718BFD4F880209C
:1025600011684B689DB2002D00F09580B4F85C10A6
:102570008D4280F09080A4F85E30D269B2F5807F01
:1025800032D050E8000F216820F4807041E800024A
:102590000AB12068F5E7206850E8020F216820F0B2
:1025A000010041E80202002AF5D1206850E8020F3C
:1025B000216820F0400041E80202002AF5D12020E5
:1025C000C4F88C000020E066206850E8000F216805
:1025D00020F0100041E80002002AF5D1D4F8800074
:1025E000FDF782FFB4F85C1002202067B4F85E00AB
:1025F000081A81B22046BDE8F840FFF77ABE1606F9
:1026000007D501F0800603F400039B1901D0A16FE8
:10261000D2E66B0609D4100233D511F0804030D0D9
:102620002046BDE8F840FFF7B0BE50E8000F216833
:1026300020F0400041E8000242B12068F5E7204662
:10264000FFF7A5FE0020C4F89000F8BD0020A067A9
:102650002020C4F888002046BDE8F84000F03CB9CE
:10266000D4F8800040B10E490165FEF7F5F890B14D
:10267000D4F88000016DA3E62046BDE8F840FFF7DE
:1026800086BED00107D5B1F1FF3F04DC2046BDE88E
:10269000F840FFF72FBEF8BD200100040100001034
:1026A00079310008FEFFFFEF10B5D8B10446D0F82D
:1026B000880028B9002084F88400204600F026F81D
:1026C0002420C4F888002068A16A026822F0010270
:1026D000026011B1204600F0A1FC204600F0F6FF98
:1026E000012801D1012010BD2068416821F49041EA
:1026F0004160816821F02A018160016841F0010197
:1027000001602046BDE8104000F0DDBC10B5B8B057
:10271000044633A81421FDF713FE02A8C021FDF7DB
:102720000FFE20683B49884232D1012002900024EC
:102730000394219402A8FEF797FC08B1FDF73EFE32
:102740001448016941F010010161016901F01001B3
:1027500001910199016841F001010160006833A90C
:1027600000F00100019007203790CDE935440220A8
:1027700034904FF4C060339001980748FEF77EF91B
:10278000252005210022FEF7C9FA2520FEF7B8FA18
:1027900038B010BDE044025800000258B0B5D0F87F
:1027A0008C30202B1AD10123C9B1C2B10023C366DA
:1027B0000C4C0368A34202D05C68240203D401F0ED
:1027C00049F900230BE053E8003F046843F08063BD
:1027D00044E80035002DF2D00368F4E702231846E0
:1027E000B0BD00BF000C0058B0B50068F549884284
:1027F00018BFB0BDF24C084D01224FF6FF732046C2
:10280000294600F00BF8204629460122BDE8B040D9
:10281000FFF7C4BF00100140180000242DE9F84361
:102820000446D0F8880020281FD1884601200029BE
:102830004AD01746002A47D04FF000091D46C4F879
:1028400090902120C4F88800FEF7F0F9A4F85670A3
:102850000646A4F85470A068B0F5805F08D12769D7
:10286000002F0CBFC146474603E00220BDE8F883B5
:102870004746B4F85600D0B12046802100223346A6
:10288000009501F073F908BB27B1216817F8010B17
:10289000886206E039F8021B206800276FF35F2189
:1028A0008162B4F856000138A4F85600E1E72046EA
:1028B000402100223346009501F058F92021C4F848
:1028C0008810002818BF0320BDE8F8832020C4F832
:1028D00088000320BDE8F8837047FEE710B5154C6B
:1028E0000020A04700F07EFA002000F075F80220DA
:1028F000FEF7ACF80120A0470220FEF7A7F8002061
:102900002146BDE81040084710B50A4C0020A047FA
:1029100000F068FA012000F05FF80520FEF796F855
:102920000120A0470520FEF791F800202146BDE8D0
:1029300010400847C529000870B500F043FA072584
:102940000026072E16D8002000F03CF80A20FEF7DB
:102950007DF8012000F036F800F00EF804460A2059
:10296000FEF774F8601E0136B0FA80F0400940EAC4
:102970004505E6E7E8B270BD77484021FEF746B965
:1029800070B5044600F02EFA002000F01BF8072571
:102990000B4E681C13D024FA05F000F0010000F083
:1029A0001BF80520B047012000F00CF80520B047C7
:1029B000002000F007F80520B047013DE9E770BDB1
:1029C0004D0A00080246002863484FF0800118BFF6
:1029D0000122FEF720B900BF024600285E484FF0F2
:1029E000400118BF0122FEF716B900BF80B500F004
:1029F000F9F90120FFF7F0FF0120FFF7E3FF0420C2
:102A0000FEF724F80020FFF7E7FF0420FEF71EF88A
:102A10000020BDE88040FFF7D5BF80B500F0E2F9A7
:102A20000020FFF7D9FF0020FFF7CCFF0420FEF7BE
:102A30000DF80120FFF7C6FF0420FEF707F801207C
:102A4000BDE88040FFF7C8BF10B500F0BBF901201A
:102A5000FFF7C2FF0120FDF7F9FF0120FFF7B2FFEA
:102A60000120FDF7F3FF0024FFF786FF38B1601C5B
:102A7000FA2C0446F8D3FFF7D0FF012403E000202E
:102A80000024FFF79FFF204610BD00002DE9F0470E
:102A900086B030484FF00008CDE9048800224FF09E
:102AA0000809016841F004010160016801F00401B6
:102AB00000910099016841F080010160016801F016
:102AC000800100910099016841F0010101600168F5
:102AD00001F0010100910099016841F002010160DB
:102AE0000068082100F0020000900098C54800F539
:102AF000C05682463046FEF78EF850464FF470714D
:102B000001220124FEF787F801AD0420CDE90288F7
:102B10000190124F30462946B84730462946CDE944
:102B20000388CDE90194B8474FF43070022604962B
:102B3000CDE90244019029465046B8474FF48070D1
:102B40000496CDE90248019029465046B84706B0A0
:102B5000BDE8F087E0440258000402587D0A0008EE
:102B600010B5174C0C2000214FF4E132154BC4E98D
:102B70000032C4E90211C4E9041004F11800142160
:102B8000FDF7DEFB2046FFF78FFD08B1FDF716FCD1
:102B90000B480021FFF7D4FB08B1FDF70FFC0848F4
:102BA0000021FFF7A8FB08B1FDF708FC0448FFF778
:102BB00085FB18B1BDE81040FDF700BC10BD00BF9B
:102BC0001C00002400100140FEE7FFF7D1F8FEE7EB
:102BD00070470000F8B5F84F0546B86A00F00300EA
:102BE000032801D10120F8BD38680C4620F0806030
:102BF0003860FEF71BF806463868000105D5FEF779
:102C000015F8801B0228F7D95CE095E80F00BE6A32
:102C100026F47C36A1F1010146EA0030B8626FF378
:102C20005F214FF47E4000EB42204FF0FE4280B225
:102C300008444FF4FE0101EB034101F4FE01084496
:102C4000296902EB016101F0FE410844B86368693B
:102C5000F96A21F0C00140EA0100F862A869F96A46
:102C600021F0200140EA0100F8624FF6F871F86A9D
:102C700020F01000F862F86B20EA0100E96940EAF0
:102C8000C100F863F86A40F01000F8623CB1F86ADD
:102C9000012C14BF40F4001040F4801002E0F86AE8
:102CA00040F40020F862386840F080603860FDF73A
:102CB000BDFF04463868000106D4FDF7B7FF001BCE
:102CC0000328F7D30320F8BD0020F8BDF8B5BA4FAC
:102CD0000546B86A00F00300032801D10120F8BDC1
:102CE00038680C4620F080503860FDF79FFF06469C
:102CF0003868800005D5FDF799FF801B0228F7D9B9
:102D00005CE095E80F00BE6A26F07C76A1F1010137
:102D100046EA0050B8626FF35F214FF47E4000EB4B
:102D200042204FF0FE4280B208444FF4FE0101EB16
:102D3000034101F4FE010844296902EB016101F03D
:102D4000FE41084438646869F96A21F4406140EA48
:102D50000100F862A869F96A21F4007140EA0100F3
:102D6000F8624FF6F871F86A20F48070F862786CB7
:102D700020EA0100E96940EAC1007864F86A40F499
:102D80008070F8623CB1F86A012C14BF40F080708A
:102D900040F4000002E0F86A40F48000F86238680D
:102DA00040F080503860FDF741FF044638688000ED
:102DB00006D4FDF73BFF001B0328F7D30320F8BD23
:102DC0000020F8BDFEB50220049040210020CDE98E
:102DD00002000191059001A90A48FDF74FFE06B0D7
:102DE00080BD00BFFEB540210191012003900290FB
:102DF0000021059103480221049101A9FDF73EFE3F
:102E000006B080BD000402587047FDF713BF0000F4
:102E100070B5A2B00FA84C21FDF792FA07A82021A7
:102E2000FDF78EFA01A81821FDF78AFA0220FDF7B6
:102E3000A1FF002000903B4C3948016821F00101BE
:102E40000160006800F001000090D4F8A80340F48D
:102E50004040C4F8A803D4F8A80300F44040009010
:102E60000098D4F8A8038004FBD5FDF7A7FFFDF771
:102E7000D7FE2068A0210025082620F01800206039
:102E8000CDE920551F9602201E90CDE91C001B9114
:102E900005211A91CDE918000120159011904FF4E9
:102EA0008030109025200F900FA8FEF76FFF18B10B
:102EB000EFF3108072B6FEE740204FF480610D9171
:102EC0000E90CDE90B00CDE90956032008900221B0
:102ED0003F20079007A8FEF781FD18B1EFF310809F
:102EE00072B6FEE7FEF786FEE06F4FF0805140F0CD
:102EF0000200E067E06F00F00200009020200690E2
:102F00002220059040F2B750049000200390CDE9B4
:102F10000101009801A8FDF759FF22B070BD00BF64
:102F20002C0400587044025810B52148214A016809
:102F300041F470010160106800F00F00062804D809
:102F40001068072161F3030010601B481B4C0168E7
:102F500041F0010101600021016103682340036029
:102F600013681B0704D51368072464F30303136075
:102F7000134A8161C16101628262124AC262124ACD
:102F8000026341638263C16302644164026822F4A4
:102F90008022026001660D480068B1EB507F02D1CB
:102FA0000B48012101600B4843F2D201016010BDC2
:102FB00088ED00E000200052004402587FEDF6EA60
:102FC000000202020000FF01800201010010005C0B
:102FD0000881005100400052B0B5416E91B10268C5
:102FE0000C4B0D4D9168C1F342619268520F5C5CCD
:102FF000695C9B5CAA5C09011201B1FBF4F1B2FBB4
:10300000F3F201E001220121A0F86810A0F86A2083
:10301000B0BD00BF2C4000082440000810B5816AF4
:103020000A0706D50268836B546824F400442343DE
:103030005360CA0706D00268C36A546824F4003497
:10304000234353608A0706D50268036B546824F44F
:103050008034234353604A0706D50268436B5468A3
:1030600024F4802423435360CA0606D50268C36B48
:10307000946824F48054234393608A0606D502683A
:10308000036C946824F40054234393604A0610D5DB
:103090000268436CB3F5801F546824F4801444EA3A
:1030A0000304546005D1836C546824F4C0042343A2
:1030B0005360090606D50168C06C4A6822F40022F4
:1030C0001043486010BDBCB504460020C4F8900011
:1030D000FDF7ACFD054620680168090719D56FF0BA
:1030E0007E4000904FF4001100222B46204600F055
:1030F0003DFD68B1206850E8000F216820F0800095
:1031000041E80002002AF5D12020C4F8880025E01B
:1031100020680068400723D56FF07E4000904FF490
:10312000800100222B46204600F020FDC0B120681F
:1031300050E8000F216820F4907041E80002002A56
:10314000F5D1206850E8020F216820F0010041E825
:103150000202002AF5D12020C4F88C00032007E0E9
:103160002020C4F88800C4F88C000020E0662067A6
:10317000002184F88410BCBD806B0021A0F85E1093
:10318000A0F85610FFF703B910B5016851E8001F09
:10319000026821F4907142E80013002BF5D1AA498E
:1031A000026852E8022F03680A4043E80224002C18
:1031B000F6D1C16E012909D1016851E8001F0268EA
:1031C00021F0100142E80013002BF5D12021C0F8B6
:1031D0008C1000214167C16610BD00BF0168D0F8A6
:1031E0008C20222A55D1B0F860204B6A1A40836D9A
:1031F00023F8022BB0F85E20013AA0F85E20836528
:10320000B0F85E200AB17047016851E8001F0268FB
:1032100021F4907142E80013002BF5D1016851E8C8
:10322000021F026821F0010142E80213002BF5D1D0
:103230002021C0F88C10B74A00214167016701685E
:10324000914202D04A68120218D4C16E012925D1D8
:103250000021C166016851E8001F026821F01001D9
:1032600042E80013002BF5D10168CA69D20601D5E6
:1032700010220A62B0F85C10FFF73BB851E8001F5B
:10328000026821F0806142E80013002BDDD0016864
:10329000F4E7886940F0080088617047FFF7A4BA36
:1032A0002DE9F84F04460068D0F81CA00168826838
:1032B000B4F86090D4F88C30222B40F09F80B4F8A2
:1032C000687002F0010601F48078FE4D4FF0000BAB
:1032D000002F00F098801AF0200000F09480206801
:1032E000A16D426A02EA090221F8022BB4F85E20BD
:1032F000013AA4F85E20A165D0F81CA05FEA4A71EB
:103300002DD0B8F1000F18BF1AF0010107D001212C
:103310000162D4F8901041F00101C4F8901056B148
:103320001AF0020107D002210162D4F8901041F096
:103330000401C4F8901056B11AF0040107D004211A
:103340000162D4F8900040F00200C4F89000D4F874
:10335000900020B12046FFF71AF8C4F890B0B4F8F6
:103360005E000028B4D1206850E8000F216820F4E6
:10337000807041E80002002AF5D1206850E8020F71
:103380002168284041E80202002AF6D12020C4F832
:103390008C00C4F874B0C4F870B0CB49206888427F
:1033A00002D0416809021AD4E06E012822D1C4F883
:1033B0006CB0206850E8000F216820F0100041E850
:1033C0000002002AF5D12068C169C90601D5102183
:1033D0000162B4F85C102046FEF78BFF78E750E8F6
:1033E000000F216820F0806041E80002002ADBD055
:1033F0002068F4E72046FFF7F7F969E7816941F0B3
:10340000080181611CE0B4F85E00C8B1B4F868102E
:10341000884215D2206850E8020F216820F08050C1
:1034200041E80202002AF5D106486067206850E8AA
:10343000000F216840F0200041E80002002AF5D189
:10344000BDE8F88FDD310008FEFFFFEF0168D0F81E
:103450008C20222A56D1B0F86020496A1140826D32
:103460001170B0F85E100139A0F85E10816D013165
:103470008165B0F85E1001B17047016851E8001F26
:10348000026821F4907142E80013002BF5D1016825
:1034900051E8021F026821F0010142E80213002BEB
:1034A000F5D12021C0F88C10874A002141670167BF
:1034B0000168914202D04A68120218D4C16E0129F3
:1034C00025D10021C166016851E8001F026821F082
:1034D000100142E80013002BF5D10168CA69D20639
:1034E00001D510220A62B0F85C10FEF702BF51E865
:1034F000001F026821F0806142E80013002BDDD03C
:103500000168F4E7886940F0080088617047FFF7B8
:103510006BB900BF000C00582DE9F84F0446006855
:10352000D0F81CA001688268B4F86090D4F88C30A0
:10353000222B40F0A180B4F8687002F0010601F47B
:103540008078604D4FF0000B002F00F09A801AF049
:10355000200000F096802068A16D406A00EA090012
:103560000870B4F85E000138A4F85E00A16D206810
:103570000131A165D0F81CA05FEA4A712DD0B8F1E5
:10358000000F18BF1AF0010107D001210162D4F821
:10359000901041F00101C4F8901056B11AF00201E8
:1035A00007D002210162D4F8901041F00401C4F860
:1035B000901056B11AF0040107D004210162D4F82A
:1035C000900040F00200C4F89000D4F8900020B1C0
:1035D0002046FEF7DCFEC4F890B0B4F85E00002888
:1035E000B2D1206850E8000F216820F4807041E8D3
:1035F0000002002AF5D1206850E8020F2168284017
:1036000041E80202002AF6D12020C4F88C00C4F858
:1036100074B0C4F870B0D0492068884202D04168C4
:1036200009021AD4E06E012822D1C4F86CB02068D7
:1036300050E8000F216820F0100041E80002002A45
:10364000F5D12068C169C90601D510210162B4F81D
:103650005C102046FEF74DFE76E750E8000F21682B
:1036600020F0806041E80002002ADBD02068F4E707
:103670002046FFF7B9F867E7816941F008018161E9
:103680001CE0B4F85E00C8B1B4F86810884215D2E6
:10369000206850E8020F216820F0805041E80202C3
:1036A000002AF5D106486067206850E8000F2168BD
:1036B00040F0200041E80002002AF5D1BDE8F88F73
:1036C0004D340008FEFFFFEF000C0058FEB5044625
:1036D000016880689E4ED4E903230D682E4018438C
:1036E00065699C4B2843E5692843304308609A4E3E
:1036F0004868B14220F4405040EA02004860A069A6
:103700001CBF226A10438A681A40944B1043886099
:10371000626AC86A20F00F001043C8629048814274
:1037200028D09048814232D08F4881423CD08F4887
:10373000814246D08E48814200F050808D488142BF
:1037400000F05880B14200F061808B48814200F067
:1037500069808A48814240F07B80586D9C46C0F366
:10376000C200052800F275800127DFE800F07367CA
:10377000696B6D6F586D9C4600F00700052800F2DC
:1037800068800027DFE800F0665A5C5E6062586D72
:103790009C4600F00700052800F25B800027DFE868
:1037A00000F0594D4F515355586D9C4600F007009D
:1037B000052800F24E800027DFE800F04C4042442C
:1037C0004648586D9C4600F00700052800F24180ED
:1037D0000027DFE800F03F333537393B586D9C4612
:1037E00000F00700052834D80027DFE800F0332771
:1037F000292B2D2F586D9C4600F00700052828D84E
:103800000027DFE800F0271B1D1F2123986D9C4631
:1038100000F0070005281CD80227DFE800F01B0F86
:1038200011131517586D9C46C0F3C200052810D817
:103830000127DFE800F00F030507090B042709E063
:10384000082707E0102705E0202703E0402701E0D4
:103850009C4680277B48B1420FD00121B5F5004F2F
:103860001BD1082F25D8DFE807F00570CFCF8BCF0D
:10387000CFCF8F00FEF7E2F98AE0402F30D0042F3F
:1038800031D0082F33D0102F3AD0202F42D0022F22
:1038900040F0B980FDF7CEFA2DE0082F14D8DFE80C
:1038A00007F00591B3B394B3B3B39800FEF7C6F92C
:1038B00093E0102F00F0B080202F6BD0402F40F00D
:1038C000A3804FF4004065E0102F00F0B080202F5F
:1038D00000F08580402F40F097804FF400407EE05C
:1038E0004FF4004016E06846FDF7B6FA02E068467D
:1038F000FDF736FB0198002800F08380626A09E03A
:10390000DCF800008006504804D5DCF80010C1F354
:10391000C101C8404D4931F812106268B0FBF1F0A6
:1039200002EB4203012198426ED3130398426BD8F5
:10393000010E0002002310EB520041F10001FCF7E0
:10394000C7FCA0F54071424A57E0FEF785F91FE039
:10395000F369FFCFFFF4FF11000C00580044025838
:103960000044004000480040004C0040005000402F
:1039700000780040007C004000140140001001402D
:103980006846FDF769FA02E06846FDF7E9FA019832
:10399000B8B3626A2D4931F81210B0FBF1F06168DA
:1039A0004A0802EB40004FF6EF72B0FBF1F0A0F1D5
:1039B0001001914227D84FF6F0710140C0F3420048
:1039C00008441CE0FEF748F907E06846FDF744FAB2
:1039D00002E06846FDF7C4FA019890B1626A1B499B
:1039E00031F812104FF6EF72B0FBF1F0616800EBA6
:1039F0005100B0FBF1F0A0F11001914203D8216811
:103A0000C860002100E001210020C4E91D004FF042
:103A10000110A0660846FEBDDCF8000080060A48DA
:103A2000B8D5DCF80010C1F3C101C840B2E7DCF83A
:103A3000000080060448D2D5DCF80010C1F3C101B3
:103A4000C840CCE700093D000090D0030C400008BE
:103A5000FFFC0F0010B5A0F85E20816500214167D2
:103A6000A0F85C20816851B1B1F1805F0BD0B1F555
:103A7000805F0CD1016921B940F2FF110AE00169B0
:103A800039B9FF2106E0016919B13F2102E00021A7
:103A900000E07F21A0F860100021C0F890102221E2
:103AA000C0F88C10016851E8021F036841F0010161
:103AB00043E80214002CF5D1416EB1F1005F03D14F
:103AC000B0F86810914216D982680169B2F5805F3A
:103AD00003D1C9B12349416702E0224A4267A9B133
:103AE000016851E8001F026841F4907142E8001338
:103AF000002BF5D12FE082680169B2F5805F10D10B
:103B0000E9B1164941670FE017494167016851E87B
:103B1000001F026841F0200142E80013002BF5D19C
:103B200019E00E4A426761B1016851E8001F02685E
:103B300041F4807142E80013002BF5D101E00849FF
:103B40004167016851E8021F026841F0805142E874
:103B50000213002BF5D1002010BD00BF193500085D
:103B6000A13200084D340008DD3100082DE9F8438A
:103B7000DDF820900446984616460F46006809F185
:103B80000105C1693940C91BB1FA81F14909B14246
:103B900029D1002DF5D0FDF749F801460320B9F1F0
:103BA000000F1ED0A1EB080149451AD82068016812
:103BB0004907E6D5402F18BF802FE2D0C169090719
:103BC00014D4C1690905DCD54FF4006101622046B7
:103BD000FFF7DAFA002084F884002020C4F890006F
:103BE0000320BDE8F8830020BDE8F88308250562BE
:103BF0002046FFF7C9FA002084F88400C4F89050EA
:103C00000120BDE8F88300002848FEF7C1BB00BFD3
:103C1000FEE7000010B500F00F03064C044AB0F1B7
:103C2000FF3F2344C8BF83180801187010BD00BFB0
:103C300000E400E014ED00E0E0B501901B4801A9AC
:103C400001224FF6FF73FEF7E9FD01988CBD00BF1E
:103C500082B0FCF7F9FFFFF7B5F8FFF7D9F8FEF7E8
:103C600015FFFEF77DFF114811490122FEF796FD71
:103C7000282000260196FCF7A5FB01AC48F24D0078
:103C800004222146FCF702FC0AA5042E05D0A15D02
:103C9000284600F021F80136F7E70BA4204600F093
:103CA0009BF94FF47A70FCF7C1FEF7E71C00002483
:103CB0001800002447543931315F526561643A205D
:103CC00025780D0A0000000048656C6C6F20576F66
:103CD000726C640D000000000FB4054B10B503A911
:103CE000044A029800F018F810BC5DF814FB0000BC
:103CF000393C00080000002402E008C8121F08C177
:103D0000002AFAD170477047002001E001C1121F5C
:103D1000002AFBD1704700002DE9FF4F8DB09B4674
:103D20000F460446002606E025280BD05A460F9978
:103D30009047641C761C20780028F5D111B03046DD
:103D4000BDE8F08F0025A8460122984900E0054310
:103D500014F8013F203B02FA03F00842F7D1207823
:103D60002E2817D114F8010F45F004052A280ED08B
:103D70006FF02F022078A0F1300109290AD808EB52
:103D8000880102EB410100EB0108641CF2E757F8DF
:103D9000048B641C20786C280DD004DC4C2812D0D5
:103DA0006A2811D104E074280DD07A280CD10AE0D9
:103DB00045F4001507E0617845F48015814202D191
:103DC000641C05F58015641C2278692A45D008DC3E
:103DD000002AB3D0582A69D0632A10D0642A08D1A7
:103DE0003BE0702A67D0732A13D0752A5CD0782AFA
:103DF0005CD010465A460F999047761CD3E017F8CE
:103E0000040B8DF8000000208DF80100E946012028
:103E100003E057F8049B4FF0FF3069074FF00005AF
:103E200001D40AE06D1C45450DDA8542FADB19F82C
:103E300005100029F6D106E06D1C8542FCDB19F85F
:103E400005100029F8D12E4404E019F8010B5A4658
:103E50000F9990476D1EF8D2A5E00A200021CDE908
:103E60000801C5F3025002280DD001CFC117031E6F
:103E700071F100030DDA4FF0000CD0EB0C006CEB8D
:103E800001012D2308E0FF1D27F00707F7E80201D5
:103E9000EDE72B0504D52B238DF8283001233BE0DB
:103EA000EB0739D02023F7E70A2000E0102000219B
:103EB000CDE9080107E01020002145F00405CDE917
:103EC00008014FF00808C5F3025002280FD001CFB7
:103ED00000214FF0000A2B071FD5702A0DD0DDE915
:103EE00008C38CF0100C5CEA030C0CD015E0FF1D2D
:103EF00027F00707F7E80201EBE740228DF82820BA
:103F00004FF0010A0BE050EA010306D030238DF890
:103F100028308DF8292002239A46582A04D024A25A
:103F20000DF120090B9209E026A2F9E7DDE908234B
:103F3000FCF7CEF90B9B9B5C09F8013D50EA0102AE
:103F4000F4D1ADEB090020300890680701D44FF0A0
:103F500001080899884502DDA8EB010000E0002077
:103F60008046002506E00AA85A46405D0F99904712
:103F70006D1C761C5545F6DB04E030205A460F993F
:103F80009047761CB8F10001A8F10108F5DC05E0C6
:103F900019F8010B5A460F999047761C0899481E4C
:103FA00008900029F4DC641CC5E600000928010023
:103FB000303132333435363738396162636465669F
:103FC0000000000030313233343536373839414261
:103FD000434445460000000010B5044601E0FFF7E9
:103FE0002BFE14F8010B04490028F8D1BDE810405D
:103FF0000A20FFF721BE000000000024000000009E
:10400000010203040102030406070809010002007B
:104010000400060008000A000C0010002000400008
:1040200080000001010101030701000008040204EF
:104030000801010158400008000000241800000099
:10404000F83C00087040000818000024A00400009C
:10405000083D000800000000000000000100000012
:10406000100000000090D0030090D003000000007A
:040000050800029954
:00000001FF
